{
  "_format": "hh-sol-artifact-1",
  "contractName": "Crowdfund",
  "sourceName": "contracts/crowdfund.sol",
  "abi": [
    {
      "anonymous": false,
      "inputs": [
        {
          "indexed": false,
          "internalType": "address",
          "name": "contributor",
          "type": "address"
        },
        {
          "indexed": false,
          "internalType": "uint256",
          "name": "amount",
          "type": "uint256"
        }
      ],
      "name": "ContributionReceived",
      "type": "event"
    },
    {
      "anonymous": false,
      "inputs": [
        {
          "indexed": false,
          "internalType": "address",
          "name": "owner",
          "type": "address"
        },
        {
          "indexed": false,
          "internalType": "uint256",
          "name": "amount",
          "type": "uint256"
        }
      ],
      "name": "FundsWithdrawn",
      "type": "event"
    },
    {
      "inputs": [],
      "name": "contribute",
      "outputs": [],
      "stateMutability": "payable",
      "type": "function"
    },
    {
      "inputs": [
        {
          "internalType": "address",
          "name": "",
          "type": "address"
        }
      ],
      "name": "contributions",
      "outputs": [
        {
          "internalType": "uint256",
          "name": "",
          "type": "uint256"
        }
      ],
      "stateMutability": "view",
      "type": "function"
    },
    {
      "inputs": [],
      "name": "deadline",
      "outputs": [
        {
          "internalType": "uint256",
          "name": "",
          "type": "uint256"
        }
      ],
      "stateMutability": "view",
      "type": "function"
    },
    {
      "inputs": [
        {
          "internalType": "address",
          "name": "contributor",
          "type": "address"
        }
      ],
      "name": "getContribution",
      "outputs": [
        {
          "internalType": "uint256",
          "name": "",
          "type": "uint256"
        }
      ],
      "stateMutability": "view",
      "type": "function"
    },
    {
      "inputs": [],
      "name": "goal",
      "outputs": [
        {
          "internalType": "uint256",
          "name": "",
          "type": "uint256"
        }
      ],
      "stateMutability": "view",
      "type": "function"
    },
    {
      "inputs": [
        {
          "internalType": "string",
          "name": "_name",
          "type": "string"
        },
        {
          "internalType": "uint256",
          "name": "_goal",
          "type": "uint256"
        },
        {
          "internalType": "uint256",
          "name": "_duration",
          "type": "uint256"
        }
      ],
      "name": "initialize",
      "outputs": [],
      "stateMutability": "nonpayable",
      "type": "function"
    },
    {
      "inputs": [],
      "name": "isGoalReached",
      "outputs": [
        {
          "internalType": "bool",
          "name": "",
          "type": "bool"
        }
      ],
      "stateMutability": "view",
      "type": "function"
    },
    {
      "inputs": [],
      "name": "name",
      "outputs": [
        {
          "internalType": "string",
          "name": "",
          "type": "string"
        }
      ],
      "stateMutability": "view",
      "type": "function"
    },
    {
      "inputs": [],
      "name": "owner",
      "outputs": [
        {
          "internalType": "address payable",
          "name": "",
          "type": "address"
        }
      ],
      "stateMutability": "view",
      "type": "function"
    },
    {
      "inputs": [],
      "name": "refund",
      "outputs": [],
      "stateMutability": "nonpayable",
      "type": "function"
    },
    {
      "inputs": [],
      "name": "totalFunds",
      "outputs": [
        {
          "internalType": "uint256",
          "name": "",
          "type": "uint256"
        }
      ],
      "stateMutability": "view",
      "type": "function"
    },
    {
      "inputs": [],
      "name": "withdrawFunds",
      "outputs": [],
      "stateMutability": "nonpayable",
      "type": "function"
    }
  ],
  "bytecode": "0x6080604052348015600f57600080fd5b506115e88061001f6000396000f3fe6080604052600436106100a75760003560e01c8063590e1ae311610064578063590e1ae3146101be5780638da5cb5b146101d5578063968ed60014610200578063977d08c01461022b578063d3eb6f6114610254578063d7bb99ba1461027f576100a7565b806306fdde03146100ac57806321eff7fc146100d757806324600fc31461011457806329dcb0cf1461012b578063401938831461015657806342e94c9014610181575b600080fd5b3480156100b857600080fd5b506100c1610289565b6040516100ce9190610ac9565b60405180910390f35b3480156100e357600080fd5b506100fe60048036038101906100f99190610b53565b610317565b60405161010b9190610b99565b60405180910390f35b34801561012057600080fd5b50610129610360565b005b34801561013757600080fd5b506101406105d5565b60405161014d9190610b99565b60405180910390f35b34801561016257600080fd5b5061016b6105db565b6040516101789190610b99565b60405180910390f35b34801561018d57600080fd5b506101a860048036038101906101a39190610b53565b6105e1565b6040516101b59190610b99565b60405180910390f35b3480156101ca57600080fd5b506101d36105f9565b005b3480156101e157600080fd5b506101ea6107a4565b6040516101f79190610bd5565b60405180910390f35b34801561020c57600080fd5b506102156107c8565b6040516102229190610b99565b60405180910390f35b34801561023757600080fd5b50610252600480360381019061024d9190610c81565b6107ce565b005b34801561026057600080fd5b506102696108ce565b6040516102769190610d10565b60405180910390f35b6102876108e1565b005b6006805461029690610d5a565b80601f01602080910402602001604051908101604052809291908181526020018280546102c290610d5a565b801561030f5780601f106102e45761010080835404028352916020019161030f565b820191906000526020600020905b8154815290600101906020018083116102f257829003601f168201915b505050505081565b6000600460008373ffffffffffffffffffffffffffffffffffffffff1673ffffffffffffffffffffffffffffffffffffffff168152602001908152602001600020549050919050565b60008054906101000a900473ffffffffffffffffffffffffffffffffffffffff1673ffffffffffffffffffffffffffffffffffffffff163373ffffffffffffffffffffffffffffffffffffffff16146103ee576040517f08c379a00000000000000000000000000000000000000000000000000000000081526004016103e590610dd7565b60405180910390fd5b600254421015610433576040517f08c379a000000000000000000000000000000000000000000000000000000000815260040161042a90610e43565b60405180910390fd5b600060035411610478576040517f08c379a000000000000000000000000000000000000000000000000000000000815260040161046f90610eaf565b60405180910390fd5b60006003549050600060038190555060008054906101000a900473ffffffffffffffffffffffffffffffffffffffff1673ffffffffffffffffffffffffffffffffffffffff166108fc829081150290604051600060405180830381858888f193505050501580156104ed573d6000803e3d6000fd5b507feaff4b37086828766ad3268786972c0cd24259d4c87a80f9d3963a3c3d999b0d60008054906101000a900473ffffffffffffffffffffffffffffffffffffffff168260405161053f929190610f2e565b60405180910390a160008060006101000a81548173ffffffffffffffffffffffffffffffffffffffff021916908373ffffffffffffffffffffffffffffffffffffffff160217905550600060018190555060006002819055506000600560006101000a81548160ff02191690831515021790555060405180602001604052806000815250600690816105d19190611128565b5050565b60025481565b60015481565b60046020528060005260406000206000915090505481565b60025442101561063e576040517f08c379a000000000000000000000000000000000000000000000000000000000815260040161063590610e43565b60405180910390fd5b600560009054906101000a900460ff161561068e576040517f08c379a000000000000000000000000000000000000000000000000000000000815260040161068590611246565b60405180910390fd5b6000600460003373ffffffffffffffffffffffffffffffffffffffff1673ffffffffffffffffffffffffffffffffffffffff16815260200190815260200160002054905060008111610715576040517f08c379a000000000000000000000000000000000000000000000000000000000815260040161070c906112b2565b60405180910390fd5b6000600460003373ffffffffffffffffffffffffffffffffffffffff1673ffffffffffffffffffffffffffffffffffffffff168152602001908152602001600020819055503373ffffffffffffffffffffffffffffffffffffffff166108fc829081150290604051600060405180830381858888f193505050501580156107a0573d6000803e3d6000fd5b5050565b60008054906101000a900473ffffffffffffffffffffffffffffffffffffffff1681565b60035481565b600073ffffffffffffffffffffffffffffffffffffffff1660008054906101000a900473ffffffffffffffffffffffffffffffffffffffff1673ffffffffffffffffffffffffffffffffffffffff161461085d576040517f08c379a00000000000000000000000000000000000000000000000000000000081526004016108549061131e565b60405180910390fd5b336000806101000a81548173ffffffffffffffffffffffffffffffffffffffff021916908373ffffffffffffffffffffffffffffffffffffffff1602179055508383600691826108ae929190611349565b508160018190555080426108c29190611448565b60028190555050505050565b600560009054906101000a900460ff1681565b6002544210610925576040517f08c379a000000000000000000000000000000000000000000000000000000000815260040161091c906114c8565b60405180910390fd5b60003411610968576040517f08c379a000000000000000000000000000000000000000000000000000000000815260040161095f9061155a565b60405180910390fd5b34600460003373ffffffffffffffffffffffffffffffffffffffff1673ffffffffffffffffffffffffffffffffffffffff16815260200190815260200160002060008282546109b79190611448565b9250508190555034600360008282546109d09190611448565b92505081905550600154600354106109fe576001600560006101000a81548160ff0219169083151502179055505b7f1bb460ccaaf70fbacfec17a376f8acbd278c1405590ffcc8ebe4b88daf4f64ad3334604051610a2f929190611589565b60405180910390a1565b600081519050919050565b600082825260208201905092915050565b60005b83811015610a73578082015181840152602081019050610a58565b60008484015250505050565b6000601f19601f8301169050919050565b6000610a9b82610a39565b610aa58185610a44565b9350610ab5818560208601610a55565b610abe81610a7f565b840191505092915050565b60006020820190508181036000830152610ae38184610a90565b905092915050565b600080fd5b600080fd5b600073ffffffffffffffffffffffffffffffffffffffff82169050919050565b6000610b2082610af5565b9050919050565b610b3081610b15565b8114610b3b57600080fd5b50565b600081359050610b4d81610b27565b92915050565b600060208284031215610b6957610b68610aeb565b5b6000610b7784828501610b3e565b91505092915050565b6000819050919050565b610b9381610b80565b82525050565b6000602082019050610bae6000830184610b8a565b92915050565b6000610bbf82610af5565b9050919050565b610bcf81610bb4565b82525050565b6000602082019050610bea6000830184610bc6565b92915050565b600080fd5b600080fd5b600080fd5b60008083601f840112610c1557610c14610bf0565b5b8235905067ffffffffffffffff811115610c3257610c31610bf5565b5b602083019150836001820283011115610c4e57610c4d610bfa565b5b9250929050565b610c5e81610b80565b8114610c6957600080fd5b50565b600081359050610c7b81610c55565b92915050565b60008060008060608587031215610c9b57610c9a610aeb565b5b600085013567ffffffffffffffff811115610cb957610cb8610af0565b5b610cc587828801610bff565b94509450506020610cd887828801610c6c565b9250506040610ce987828801610c6c565b91505092959194509250565b60008115159050919050565b610d0a81610cf5565b82525050565b6000602082019050610d256000830184610d01565b92915050565b7f4e487b7100000000000000000000000000000000000000000000000000000000600052602260045260246000fd5b60006002820490506001821680610d7257607f821691505b602082108103610d8557610d84610d2b565b5b50919050565b7f4f6e6c79206f776e65722063616e207769746864726177000000000000000000600082015250565b6000610dc1601783610a44565b9150610dcc82610d8b565b602082019050919050565b60006020820190508181036000830152610df081610db4565b9050919050565b7f43726f776466756e64206973207374696c6c2061637469766500000000000000600082015250565b6000610e2d601983610a44565b9150610e3882610df7565b602082019050919050565b60006020820190508181036000830152610e5c81610e20565b9050919050565b7f4e6f2066756e647320746f207769746864726177000000000000000000000000600082015250565b6000610e99601483610a44565b9150610ea482610e63565b602082019050919050565b60006020820190508181036000830152610ec881610e8c565b9050919050565b6000819050919050565b6000610ef4610eef610eea84610af5565b610ecf565b610af5565b9050919050565b6000610f0682610ed9565b9050919050565b6000610f1882610efb565b9050919050565b610f2881610f0d565b82525050565b6000604082019050610f436000830185610f1f565b610f506020830184610b8a565b9392505050565b7f4e487b7100000000000000000000000000000000000000000000000000000000600052604160045260246000fd5b60008190508160005260206000209050919050565b60006020601f8301049050919050565b600082821b905092915050565b600060088302610fe87fffffffffffffffffffffffffffffffffffffffffffffffffffffffffffffffff82610fab565b610ff28683610fab565b95508019841693508086168417925050509392505050565b600061102561102061101b84610b80565b610ecf565b610b80565b9050919050565b6000819050919050565b61103f8361100a565b61105361104b8261102c565b848454610fb8565b825550505050565b600090565b61106861105b565b611073818484611036565b505050565b5b818110156110975761108c600082611060565b600181019050611079565b5050565b601f8211156110dc576110ad81610f86565b6110b684610f9b565b810160208510156110c5578190505b6110d96110d185610f9b565b830182611078565b50505b505050565b600082821c905092915050565b60006110ff600019846008026110e1565b1980831691505092915050565b600061111883836110ee565b9150826002028217905092915050565b61113182610a39565b67ffffffffffffffff81111561114a57611149610f57565b5b6111548254610d5a565b61115f82828561109b565b600060209050601f8311600181146111925760008415611180578287015190505b61118a858261110c565b8655506111f2565b601f1984166111a086610f86565b60005b828110156111c8578489015182556001820191506020850194506020810190506111a3565b868310156111e557848901516111e1601f8916826110ee565b8355505b6001600288020188555050505b505050505050565b7f476f616c2077617320726561636865642c2063616e6e6f7420726566756e6400600082015250565b6000611230601f83610a44565b915061123b826111fa565b602082019050919050565b6000602082019050818103600083015261125f81611223565b9050919050565b7f4e6f20636f6e747269627574696f6e7320746f20726566756e64000000000000600082015250565b600061129c601a83610a44565b91506112a782611266565b602082019050919050565b600060208201905081810360008301526112cb8161128f565b9050919050565b7f416c726561647920696e697469616c697a656400000000000000000000000000600082015250565b6000611308601383610a44565b9150611313826112d2565b602082019050919050565b60006020820190508181036000830152611337816112fb565b9050919050565b600082905092915050565b611353838361133e565b67ffffffffffffffff81111561136c5761136b610f57565b5b6113768254610d5a565b61138182828561109b565b6000601f8311600181146113b0576000841561139e578287013590505b6113a8858261110c565b865550611410565b601f1984166113be86610f86565b60005b828110156113e6578489013582556001820191506020850194506020810190506113c1565b8683101561140357848901356113ff601f8916826110ee565b8355505b6001600288020188555050505b50505050505050565b7f4e487b7100000000000000000000000000000000000000000000000000000000600052601160045260246000fd5b600061145382610b80565b915061145e83610b80565b925082820190508082111561147657611475611419565b5b92915050565b7f43726f776466756e642068617320656e64656400000000000000000000000000600082015250565b60006114b2601383610a44565b91506114bd8261147c565b602082019050919050565b600060208201905081810360008301526114e1816114a5565b9050919050565b7f436f6e747269627574696f6e206d75737420626520677265617465722074686160008201527f6e20300000000000000000000000000000000000000000000000000000000000602082015250565b6000611544602383610a44565b915061154f826114e8565b604082019050919050565b6000602082019050818103600083015261157381611537565b9050919050565b61158381610b15565b82525050565b600060408201905061159e600083018561157a565b6115ab6020830184610b8a565b939250505056fea2646970667358221220c50f5d826008496b764517865512db5fbbb81adffbd0c919be661daf5a1a0bc264736f6c634300081c0033",
  "linkReferences": {},
  "deployedLinkReferences": {}
}