{
  "_format": "hh-sol-artifact-1",
  "contractName": "Crowdfund",
  "sourceName": "contracts/crowdfund.sol",
  "abi": [
    {
      "anonymous": false,
      "inputs": [
        {
          "indexed": false,
          "internalType": "address",
          "name": "contributor",
          "type": "address"
        },
        {
          "indexed": false,
          "internalType": "uint256",
          "name": "amount",
          "type": "uint256"
        }
      ],
      "name": "ContributionReceived",
      "type": "event"
    },
    {
      "anonymous": false,
      "inputs": [
        {
          "indexed": false,
          "internalType": "address",
          "name": "owner",
          "type": "address"
        },
        {
          "indexed": false,
          "internalType": "uint256",
          "name": "amount",
          "type": "uint256"
        }
      ],
      "name": "FundsWithdrawn",
      "type": "event"
    },
    {
      "inputs": [],
      "name": "contribute",
      "outputs": [],
      "stateMutability": "payable",
      "type": "function"
    },
    {
      "inputs": [
        {
          "internalType": "address",
          "name": "",
          "type": "address"
        }
      ],
      "name": "contributions",
      "outputs": [
        {
          "internalType": "uint256",
          "name": "",
          "type": "uint256"
        }
      ],
      "stateMutability": "view",
      "type": "function"
    },
    {
      "inputs": [],
      "name": "deadline",
      "outputs": [
        {
          "internalType": "uint256",
          "name": "",
          "type": "uint256"
        }
      ],
      "stateMutability": "view",
      "type": "function"
    },
    {
      "inputs": [
        {
          "internalType": "address",
          "name": "contributor",
          "type": "address"
        }
      ],
      "name": "getContribution",
      "outputs": [
        {
          "internalType": "uint256",
          "name": "",
          "type": "uint256"
        }
      ],
      "stateMutability": "view",
      "type": "function"
    },
    {
      "inputs": [],
      "name": "goal",
      "outputs": [
        {
          "internalType": "uint256",
          "name": "",
          "type": "uint256"
        }
      ],
      "stateMutability": "view",
      "type": "function"
    },
    {
      "inputs": [
        {
          "internalType": "uint256",
          "name": "_goal",
          "type": "uint256"
        },
        {
          "internalType": "uint256",
          "name": "_duration",
          "type": "uint256"
        }
      ],
      "name": "initialize",
      "outputs": [],
      "stateMutability": "nonpayable",
      "type": "function"
    },
    {
      "inputs": [],
      "name": "isGoalReached",
      "outputs": [
        {
          "internalType": "bool",
          "name": "",
          "type": "bool"
        }
      ],
      "stateMutability": "view",
      "type": "function"
    },
    {
      "inputs": [],
      "name": "owner",
      "outputs": [
        {
          "internalType": "address payable",
          "name": "",
          "type": "address"
        }
      ],
      "stateMutability": "view",
      "type": "function"
    },
    {
      "inputs": [],
      "name": "refund",
      "outputs": [],
      "stateMutability": "nonpayable",
      "type": "function"
    },
    {
      "inputs": [],
      "name": "totalFunds",
      "outputs": [
        {
          "internalType": "uint256",
          "name": "",
          "type": "uint256"
        }
      ],
      "stateMutability": "view",
      "type": "function"
    },
    {
      "inputs": [],
      "name": "withdrawFunds",
      "outputs": [],
      "stateMutability": "nonpayable",
      "type": "function"
    }
  ],
  "bytecode": "0x6080604052348015600f57600080fd5b506110238061001f6000396000f3fe60806040526004361061009c5760003560e01c8063590e1ae311610064578063590e1ae3146101885780638da5cb5b1461019f578063968ed600146101ca578063d3eb6f61146101f5578063d7bb99ba14610220578063e4a301161461022a5761009c565b806321eff7fc146100a157806324600fc3146100de57806329dcb0cf146100f5578063401938831461012057806342e94c901461014b575b600080fd5b3480156100ad57600080fd5b506100c860048036038101906100c39190610988565b610253565b6040516100d591906109ce565b60405180910390f35b3480156100ea57600080fd5b506100f361029c565b005b34801561010157600080fd5b5061010a6104d5565b60405161011791906109ce565b60405180910390f35b34801561012c57600080fd5b506101356104db565b60405161014291906109ce565b60405180910390f35b34801561015757600080fd5b50610172600480360381019061016d9190610988565b6104e1565b60405161017f91906109ce565b60405180910390f35b34801561019457600080fd5b5061019d6104f9565b005b3480156101ab57600080fd5b506101b46106a4565b6040516101c19190610a0a565b60405180910390f35b3480156101d657600080fd5b506101df6106c8565b6040516101ec91906109ce565b60405180910390f35b34801561020157600080fd5b5061020a6106ce565b6040516102179190610a40565b60405180910390f35b6102286106e1565b005b34801561023657600080fd5b50610251600480360381019061024c9190610a87565b610839565b005b6000600460008373ffffffffffffffffffffffffffffffffffffffff1673ffffffffffffffffffffffffffffffffffffffff168152602001908152602001600020549050919050565b60008054906101000a900473ffffffffffffffffffffffffffffffffffffffff1673ffffffffffffffffffffffffffffffffffffffff163373ffffffffffffffffffffffffffffffffffffffff161461032a576040517f08c379a000000000000000000000000000000000000000000000000000000000815260040161032190610b24565b60405180910390fd5b60025442101561036f576040517f08c379a000000000000000000000000000000000000000000000000000000000815260040161036690610b90565b60405180910390fd5b600560009054906101000a900460ff166103be576040517f08c379a00000000000000000000000000000000000000000000000000000000081526004016103b590610bfc565b60405180910390fd5b600060035411610403576040517f08c379a00000000000000000000000000000000000000000000000000000000081526004016103fa90610c68565b60405180910390fd5b60006003549050600060038190555060008054906101000a900473ffffffffffffffffffffffffffffffffffffffff1673ffffffffffffffffffffffffffffffffffffffff166108fc829081150290604051600060405180830381858888f19350505050158015610478573d6000803e3d6000fd5b507feaff4b37086828766ad3268786972c0cd24259d4c87a80f9d3963a3c3d999b0d60008054906101000a900473ffffffffffffffffffffffffffffffffffffffff16826040516104ca929190610ce7565b60405180910390a150565b60025481565b60015481565b60046020528060005260406000206000915090505481565b60025442101561053e576040517f08c379a000000000000000000000000000000000000000000000000000000000815260040161053590610b90565b60405180910390fd5b600560009054906101000a900460ff161561058e576040517f08c379a000000000000000000000000000000000000000000000000000000000815260040161058590610d5c565b60405180910390fd5b6000600460003373ffffffffffffffffffffffffffffffffffffffff1673ffffffffffffffffffffffffffffffffffffffff16815260200190815260200160002054905060008111610615576040517f08c379a000000000000000000000000000000000000000000000000000000000815260040161060c90610dc8565b60405180910390fd5b6000600460003373ffffffffffffffffffffffffffffffffffffffff1673ffffffffffffffffffffffffffffffffffffffff168152602001908152602001600020819055503373ffffffffffffffffffffffffffffffffffffffff166108fc829081150290604051600060405180830381858888f193505050501580156106a0573d6000803e3d6000fd5b5050565b60008054906101000a900473ffffffffffffffffffffffffffffffffffffffff1681565b60035481565b600560009054906101000a900460ff1681565b6002544210610725576040517f08c379a000000000000000000000000000000000000000000000000000000000815260040161071c90610e34565b60405180910390fd5b60003411610768576040517f08c379a000000000000000000000000000000000000000000000000000000000815260040161075f90610ec6565b60405180910390fd5b34600460003373ffffffffffffffffffffffffffffffffffffffff1673ffffffffffffffffffffffffffffffffffffffff16815260200190815260200160002060008282546107b79190610f15565b9250508190555034600360008282546107d09190610f15565b92505081905550600154600354106107fe576001600560006101000a81548160ff0219169083151502179055505b7f1bb460ccaaf70fbacfec17a376f8acbd278c1405590ffcc8ebe4b88daf4f64ad333460405161082f929190610f58565b60405180910390a1565b600073ffffffffffffffffffffffffffffffffffffffff1660008054906101000a900473ffffffffffffffffffffffffffffffffffffffff1673ffffffffffffffffffffffffffffffffffffffff16146108c8576040517f08c379a00000000000000000000000000000000000000000000000000000000081526004016108bf90610fcd565b60405180910390fd5b336000806101000a81548173ffffffffffffffffffffffffffffffffffffffff021916908373ffffffffffffffffffffffffffffffffffffffff16021790555081600181905550804261091b9190610f15565b6002819055505050565b600080fd5b600073ffffffffffffffffffffffffffffffffffffffff82169050919050565b60006109558261092a565b9050919050565b6109658161094a565b811461097057600080fd5b50565b6000813590506109828161095c565b92915050565b60006020828403121561099e5761099d610925565b5b60006109ac84828501610973565b91505092915050565b6000819050919050565b6109c8816109b5565b82525050565b60006020820190506109e360008301846109bf565b92915050565b60006109f48261092a565b9050919050565b610a04816109e9565b82525050565b6000602082019050610a1f60008301846109fb565b92915050565b60008115159050919050565b610a3a81610a25565b82525050565b6000602082019050610a556000830184610a31565b92915050565b610a64816109b5565b8114610a6f57600080fd5b50565b600081359050610a8181610a5b565b92915050565b60008060408385031215610a9e57610a9d610925565b5b6000610aac85828601610a72565b9250506020610abd85828601610a72565b9150509250929050565b600082825260208201905092915050565b7f4f6e6c79206f776e65722063616e207769746864726177000000000000000000600082015250565b6000610b0e601783610ac7565b9150610b1982610ad8565b602082019050919050565b60006020820190508181036000830152610b3d81610b01565b9050919050565b7f43726f776466756e64206973207374696c6c2061637469766500000000000000600082015250565b6000610b7a601983610ac7565b9150610b8582610b44565b602082019050919050565b60006020820190508181036000830152610ba981610b6d565b9050919050565b7f46756e64696e6720676f616c206e6f7420726561636865640000000000000000600082015250565b6000610be6601883610ac7565b9150610bf182610bb0565b602082019050919050565b60006020820190508181036000830152610c1581610bd9565b9050919050565b7f4e6f2066756e647320746f207769746864726177000000000000000000000000600082015250565b6000610c52601483610ac7565b9150610c5d82610c1c565b602082019050919050565b60006020820190508181036000830152610c8181610c45565b9050919050565b6000819050919050565b6000610cad610ca8610ca38461092a565b610c88565b61092a565b9050919050565b6000610cbf82610c92565b9050919050565b6000610cd182610cb4565b9050919050565b610ce181610cc6565b82525050565b6000604082019050610cfc6000830185610cd8565b610d0960208301846109bf565b9392505050565b7f476f616c2077617320726561636865642c2063616e6e6f7420726566756e6400600082015250565b6000610d46601f83610ac7565b9150610d5182610d10565b602082019050919050565b60006020820190508181036000830152610d7581610d39565b9050919050565b7f4e6f20636f6e747269627574696f6e7320746f20726566756e64000000000000600082015250565b6000610db2601a83610ac7565b9150610dbd82610d7c565b602082019050919050565b60006020820190508181036000830152610de181610da5565b9050919050565b7f43726f776466756e642068617320656e64656400000000000000000000000000600082015250565b6000610e1e601383610ac7565b9150610e2982610de8565b602082019050919050565b60006020820190508181036000830152610e4d81610e11565b9050919050565b7f436f6e747269627574696f6e206d75737420626520677265617465722074686160008201527f6e20300000000000000000000000000000000000000000000000000000000000602082015250565b6000610eb0602383610ac7565b9150610ebb82610e54565b604082019050919050565b60006020820190508181036000830152610edf81610ea3565b9050919050565b7f4e487b7100000000000000000000000000000000000000000000000000000000600052601160045260246000fd5b6000610f20826109b5565b9150610f2b836109b5565b9250828201905080821115610f4357610f42610ee6565b5b92915050565b610f528161094a565b82525050565b6000604082019050610f6d6000830185610f49565b610f7a60208301846109bf565b9392505050565b7f416c726561647920696e697469616c697a656400000000000000000000000000600082015250565b6000610fb7601383610ac7565b9150610fc282610f81565b602082019050919050565b60006020820190508181036000830152610fe681610faa565b905091905056fea26469706673582212203a70db32a69d148f07fe96ff8c8b459f46d48c01207634054e60c979a733955364736f6c634300081c0033",
  "linkReferences": {},
  "deployedLinkReferences": {}
}